:10099800BBBDD0D1B4CA3AD6C7C4DCC0ACBBF8CF53
:1009A800E40D0A0020202020202031A1A2BFC9BBCD
:1009B800D8CAD5C0ACBBF80D0A000932A1A2B8C983
:1009C800C0ACBBF80D0A000933A1A2CAAAC0ACBBCF
:1009D800F80D0A000934A1A2D3D0BAA6C0ACBBF85E
:1009E8000D0A0020202020202035A1A2D2D7C0AD9A
:1009F800B9DE0D0A000936A1A2B1A8D6BD0D0A00BC
:100A08000937A1A2CEC0C9FAD6BD0D0A000938A17E
:100A1800A2C3ABBDED0D0A000939A1A2B1B4CAA3A6
:100A2800B2CBCAA3B7B90D0A00202020202020315C
:100A380030A1A2B9C6DACAB3C6B70D0A0009313166
:100A4800A1A2B5E7B3D80D0A00093132A1A2C9B1F4
:100A5800B3E6BCC10D0A00CAD5B5BD0D0A00A1B0E8
:100A6800BFC9BBD8CAD5C0ACBBF8A1B1C3FCC1EEE5
:100A7800CAB6B1F0B3C9B9A60D0A00A1B0B8C9C0C9
:100A8800ACBBF8A1B1C3FCC1EECAB6B1F0B3C9B9E9
:100A9800A60D0A00A1B0CAAAC0ACBBF8A1B1C3FC9C
:100AA800C1EECAB6B1F0B3C9B9A60D0A00A1B0D358
:100AB800D0BAA6C0ACBBF8A1B1C3FCC1EECAB6B1EE
:100AC800F0B3C9B9A60D0A00A1B0D2D7C0ADB9DE3E
:100AD800A1B1C3FCC1EECAB6B1F0B3C9B9A60D0A3B
:100AE80000A1B0B1A8D6BDA1B1C3FCC1EECAB6B1D0
:100AF800F0B3C9B9A60D0A00A1B0CEC0C9FAD6BDD7
:100B0800A1B1C3FCC1EECAB6B1F0B3C9B9A60D0A0A
:100B180000A1B0C3ABBDEDA1B1C3FCC1EECAB6B173
:100B2800F0B3C9B9A60D0A00A1B0CAA3B2CBCAA333
:100B3800B7B9A1B1C3FCC1EECAB6B1F0B3C9B9A681
:100B48000D0A00A1B0B9C6DACAB3C6B7A1B1C3FCD1
:100B5800C1EECAB6B1F0B3C9B9A60D0A00A1B0B5C5
:100B6800E7B3D8A1B1C3FCC1EECAB6B1F0B3C9B9F5
:100B7800A60D0A00A1B0C9B1B3E6BCC1A1B1C3FCBE
:100B8800C1EECAB6B1F0B3C9B9A60D0A00C7EBD613
:100B9800D8D0C2CAB6B1F0B7A2BFDAC1EE0D0A000A
:0F0BA800C7EBCBB5B3F6BBBDD0D1B4CA0D0A00B5
:0615640001250001240036
:100F4D00E4F50912152C12150F120D4112145AE465
:100F5D007825F67BFF7A0979981214A87BFF7A0918
:100F6D0079AC1214A87BFF7A0979C21214A87BFF01
:100F7D007A0979CF1214A87BFF7A0979DC1214A8AB
:100F8D007BFF7A0979EB1214A87BFF7A0979FD12A0
:100F9D0014A87BFF7A0A79081214A87BFF7A0A79C4
:100FAD00151214A87BFF7A0A79201214A87BFF7AF8
:100FBD000A79311214A87BFF7A0A79451214A87B9D
:100FCD00FF7A0A79511214A8D290D291D292D2936B
:100FDD00D2947825E61460FA24F1601824DF60F2CB
:100FED002431702078257601121363EF70E4782593
:100FFD00763180DE1215857827EFF6120E48E478EB
:0A100D0025F680CEE47825F680C8B1
:10152C00B2C212154CB2C212154CB2C212154CB248
:02153C00C222C9
:10150F00E4F5917592FF7580FFF59075A0FF75B0AA
:0D151F00FF75C0FFC2C3D289D2A8D2AF228F
:0A15590000007F057E49DEFEDFFC86
:011563002265
:0814CD008F148E138D128C1197
:1014D500E4F515F516F517F518781174FF120BE0FC
:0B14E500EC4D4E4F600512155980EED3
:0114F00022D9
:0414F1007FD07E0723
:1014F500EF4E60157D507C00ED1DAA0470011C4A5D
:0915050070F6EF1F70EA1E80E78A
:01150E0022BA
:0C154C007F117ED07D1BDDFEDEFCDFFA8F
:011558002270
:030003000213F6EF
:1013F600C0E0C0F0C083C082C0D075D000C000C0BD
:1014060001C002C003C004C005C006C007121150C7
:10141600D007D006D005D004D003D002D001D0002A
:0B142600D0D0D082D083D0F0D0E032D4
:100E48008F0AE50A701A752401C2C27BFF7A0A79F3
:100E58005F1214A8C2947FDC7E051214F5D2942286
:100E6800E52464016003020F43F524D2C2E50A2495
:100E7800D17003020F2A242EB40B004003020F3B4B
:100E8800900E9675F003A4C58325F0C58373020EF2
:100E9800B7020EBF020EC7020ECF020ED7020EDF38
:100EA800020EF0020EF8020F09020F11020F227B48
:100EB800FF7A0A796680267BFF7A0A798380377BF6
:100EC800FF7A0A799C80487BFF7A0A79B580597B3A
:100ED800FF7A0A79D080067BFF7A0A79E91214A88A
:100EE800C2901214F1D290227BFF7A0B790080060F
:100EF8007BFF7A0B79191214A8C2911214F1D291BE
:100F0800227BFF7A0B793080067BFF7A0B794B12B4
:100F180014A8C2921214F1D292227BFF7A0B79653F
:100F280080067BFF7A0B797C1214A8C2931214F105
:100F3800D293227BFF7A0B799580067BFF7A0B7917
:050F4800A81214A8220C
:100006005245472D30363A2578005245472D33352F
:100016003A2578005245472D31623A2578005245F7
:10002600472D62333A2578007A6869206E656E67D7
:10003600206C61206A69207869616E6700000000A3
:100046000000000000006B65206875692073686F0A
:1000560075206C61206A6900000000000000000045
:100066000000000067616E206C61206A6900000074
:10007600000000000000000000000000000000007A
:100086000000736869206C61206A69000000000046
:10009600000000000000000000000000000000005A
:1000A600796F7520686169206C61206A69000000BB
:1000B6000000000000000000000000000000796958
:1000C600206C61206775616E000000000000000072
:1000D60000000000000000000000000062616F20C8
:1000E6007A686900000000000000000000000000BF
:1000F60000000000000000000000776569207368BA
:10010600656E67207A686900000000000000000044
:1001160000000000000000006D616F206A696E003B
:1001260000000000000000000000000000000000C9
:100136000000000000007368656E67206361692037
:100146007368656E672066616E000000000000003F
:100156000000000067756F20716920736869207060
:10016600696E0000000000000000000000000000B2
:1001760000006469616E2063686900000000000089
:100186000000000000000000000000000000000069
:100196007368612063686F6E67206A6900000000FB
:1001A6000000000000000000000000000000000049
:1001B6000000000000000000000000000000000039
:1001C6000000000000000000000000000000000029
:1001D6000000000000000000000000000000000019
:1006060000000000000102030405060708090A0BA2
:100616002F000000000000000000000000000000A5
:1006260000000000000000000000000000000000C4
:06063600000000000000BE
:100D4100E4900005F0A3F0D2B57F05FEFDFC12147E
:100D5100CDC2B57F057E007D007C001214CDD2B5D9
:100D61007F057E007D007C001214CDC2A17F057E2F
:100D7100007D007C001214CDD2A17F057E007D0094
:100D81007C001214CD7F0612157A900005EFF0A3B6
:100D9100E02400F9E43400FA7B01750FFF751000BF
:100DA1007511068F12120698900006E02FF07D3320
:100DB1007F3512156F7D557F1B12156F7DAA7FB38D
:100DC10012156F7F3512157A900005EFF0A3E0241C
:100DD10000F9E43400FA7B01750FFF7510007511FD
:100DE100108F12120698900006E02FF07F1B12154B
:100DF1007A900005EFF0A3E02400F9E43400FA7BD7
:100E010001750FFF75100075111A8F121206989057
:100E11000006E02FF07FB312157A900005EFF0A3E2
:100E2100E02400F9E43400FA7B01750FFF7510002E
:100E31007511248F12120698900006E02FF07B01A5
:070E41007A0079000214A8F9
:1010B4007F0612157A7D357F1712156F7F0A7E0021
:1010C4007D007C001214CD7F0612157A7D037F8982
:1010D40012156F7F057E007D007C001214CD7D43C8
:1010E4007FCF12156F7F057E007D007C001214CD2A
:1010F4007D027FCB12156F7D0A7F1112156FE4FDFF
:101104007F1E12156F7D3F7F1912156F7D487F1B5F
:1011140012156F7D1F7F1D12156F7F0A7E007D00E3
:101124007C001214CD7D047FCD12156F7F057E00E7
:101134007D007C001214CDE4FD7FB912156F7D4F44
:0C1144007FCF12156F7DFF7F6F02156FCB
:101304001210B4E4FD7FBD12156F7D487F171215CE
:101314006F7F0A7E007D007C001214CD7D807F3CAF
:1013240012156F7D077F3E12156F7DFF7F381215F2
:101334006F7D077F3A12156FE4FD7F4012156F7DB4
:10134400087F4212156FE4FD7F4412156F7D087FFC
:0F1354004612156F7F017E007D007C000214CDD4
:10115000E4F508C2A87F2B12157A7826A607E4FDCD
:101160007F2912156FE4FD7F0212156F7826E63095
:10117000E42D7FB212157AEF642170237FBF121520
:101180007ABF351B7FBA12157A8F08E508D3940011
:10119000400DE508D3940450067825761080047835
:1011A000257611E4FD7F2B12156FE4FD7F1C1215CF
:1011B0006FE4FD7F2912156FE4FD7F0212156FE4C5
:1011C000FD7F2B12156FE4FD7FBA12156FE4FD7FD2
:1011D000BC12156F7D017F0812156FE4FD7F0812A8
:0411E000156FD2A80D
:0111E40022E8
:10136300E4F50AF50BF50A12158A7F327E007D003B
:101373007C001214CD121017EF700280117F0A7EC9
:10138300007D007C001214CD1211E5EF7010120DD8
:10139300417F327E007D007C001214CD8005750BE9
:0E13A300018009050AE50AC3940540BBAF0BA3
:0113B1002219
:10143100E4F510F50F7FB212157ABF210575100181
:1014410080147F0A7E007D007C001214CD050FE51B
:081451000FC3940A40DFAF1045
:011459002270
:03158A0002130445
:1011E500C2A87D4F7F3512156F7D097F1C12156FC3
:1011F5007D207FBD12156F7D017F0812156F7F0160
:101205007E007D007C001214CDE4FD7F0812156F71
:101215007F017E007D007C001214CD121431EF7029
:1012250002FF227D0B7F1C12156F7DFF7FB2121509
:101235006F7F017E007D007C001214CD7D067F3717
:1012450012156F7F017E007D007C001214CD7D0696
:101255007F3712156F7F057E007D007C001214CD4F
:101265007D107F2912156FE4FD7FBD12156FD2A881
:031275007F0122D4
:10101700750D01E4F50C121431EF7005F50D021092
:10102700B1E50C90060A93FD7FC112156FE4FD7FB1
:10103700C312156F7D047F0812156F7F017E007D37
:10104700007C001214CDE4FD7F0812156F7F017E2E
:10105700007D007C001214CDE4F50E75F01EE50C42
:10106700A4242EF582E5F03400F583E582250EF5FC
:1010770082E43583F583E493FD600E7F0512156FD7
:10108700050EE50EC3941E40D2AD0E7FB912156F43
:101097007DFF7FB212156F7D047F3712156F050C28
:0C10A700E50CC39432500302101DAF0D85
:0110B300221A
:051585007FC502157A8C
:0B156F00908100EFF0908000EDF02272
:0B157A00908100EFF0908000E0FF2265
:04156A0002222580B4
:10145A00759850758920AE22AF23AB07AA06E4F926
:10146A00F8FF7EE1FDFC1213B2120BD08F8B8F8D29
:07147A00D28ED2ACD2AF22EA
:0E153E00C2ACC2998F993099FDC299D2AC22ED
:1014A8008B0C8A0D890EAB0CAA0DA90E120BB76016
:1014B80013050EE50E7002050D14F9120BB7FF1295
:0514C800153E80E22248
:0300000002127871
:0C127800787FE4F6D8FD7581270212BFD4
:100BB700BB010689828A83E0225002E722BBFE023C
:090BC700E32289828A83E493226F
:1013B200C2D5E830E70FB2D5E4C39BFBE49AFAE466
:1013C20099F9E498F8EC30E717B2D51213E8120C49
:1013D20079E4C39BFBE49AFAE499F9E498F8800370
:1013E200120C7930D50DE4C39FFFE49EFEE49DFD0F
:0413F200E49CFC2259
:0E0BD000C3E49FFFE49EFEE49DFDE49CFC2236
:100BDE007401FF3395E0FEFDFC080808E6CF2FF602
:100BEE0018E6CE3EF618E6CD3DF618E6CC3CF622DB
:10063C00E51B240FF8E6051B22780C300702780F17
:10064C00E475F001120D0B020BB72000EB7F2ED2DC
:10065C00008018EF540F2490D43440D4FF30040B96
:10066C00EF24BFB41A0050032461FFE51C6002158F
:10067C001C051FE51F7002051E30070D780CE47574
:10068C00F001120D0BEF020C2B0214817403D20734
:10069C008003E4C207F51B8B0C8A0D890EE4F51C54
:1006AC00F51EF51FE51C60077F2012067780F57597
:1006BC001DFFC201C200C202C203C205C206C208AB
:1006CC00120645FF700D3007057F00120688AF1F1C
:1006DC00AE1E22B4255FC2D5C204120645FF24D03B
:1006EC00B40A00501A75F00A781C30D50508B6FF0C
:1006FC000106C6A426F620D5047002D20380D924A4
:10070C00CFB41A00EF5004C2E5D204020888D2011B
:10071C0080C6D20080C0D20280BCD2D580BAD205AD
:10072C0080B47F201206772002077401B51C0040AC
:10073C00F112063CFF1206770206B0D208D20680F0
:10074C009512063CFB12063CFA12063CF94A4B7019
:10075C000679597A097BFF20022EE51C602A7E005F
:10076C008E82758300120BFE60060EEE651D70F016
:10077C00C2D5EBC0E0EAC0E0E9C0E0EE1208CFD091
:10078C00E0F9D0E0FAD0E0FB120BB7FF60AAEBC0A7
:10079C00E0EAC0E0E9C0E0120677D0E02401F9D02D
:1007AC00E03400FAD0E0FBE51D0460DCD51DD980F7
:1007BC00877BFF7A0879CBD202809C7910800279F2
:1007CC0008C206C2088008D2D5790A8004790AC208
:1007DC00D5E51D047002F51DE4FAFDFEFF12063C82
:1007EC00FC7B0820011312063CFD7B1030000A1222
:1007FC00063CFE12063CFF7B20EC3382D592D55092
:10080C0013C3E43000069FFFE49EFEE42001039D29
:10081C00FDE49CFCE4CBF8C201EC700CCFCECDCC4B
:10082C00E824F8F870F38017C3EF33FFEE33FEEDD6
:10083C0033FDEC33FCEB33FB994002FB0FD8E9EBB7
:10084C00300105F8D0E0C448B201C0E00AEC4D4ECE
:10085C004F78207B0070C2EAB51D0040BCC0E0128E
:10086C0008D1D0F0D0E0200104C4C0E0C4B201C073
:10087C00F0120660D0F0D5F0EB0206B0120D1B079B
:10088C004D5307C758071E4C071A4207CB4F07D3C7
:0F089C004407D34907334307D95507BD4607BD66
:1008AB004507BD4709795007222D07262E07492BEF
:1008BB00072A2307472009622A06E248000007415E
:1008CB003F3F3F00790AA2D5200314300509B91028
:1008DB00020404B9080104A2D52006025001042029
:1008EB0002689202B51C005034C0E07F203003191F
:1008FB007F30A20272067205500F120928C202C283
:10090B0006C205C2087F30800F300503E9C0E01234
:10091B000677300503D0E0F9D0E0B51CCC300517D5
:10092B007F30B9100C1206777F583004077F788020
:10093B0003B908031206773002057F2D0206777F75
:10094B00202008F87F2B2006F322920280CF286EFE
:10095B00756C6C2900D20112063C3001F8C201788B
:10096B001C30D50108F60206E22D504349581206F9
:10097B003C2403B405004001E4900974931206680B
:0D098B00743A120668D203751C040207C7F7
:10128400020F4DE493A3F8E493A34003F68001F224
:1012940008DFF48029E493A3F85407240CC8C3336B
:1012A400C4540F4420C8834004F456800146F6DF3A
:1012B400E4800B0102040810204080901564E47E51
:1012C400019360BCA3FF543F30E509541FFEE4932F
:1012D400A360010ECF54C025E060A840B8E493A3F6
:1012E400FAE493A3F8E493A3C8C582C8CAC583CA21
:1012F400F0A3C8C582C8CAC583CADFE9DEE780BED9
:01156E00007C
:100BFE00BB010CE58229F582E5833AF583E02250AC
:100C0E0006E92582F8E622BBFE06E92582F8E222F5
:0D0C1E00E58229F582E5833AF583E493220F
:100C2B00BB010689828A83F0225002F722BBFE01A8
:020C3B00F322A2
:100C3D0075F008758200EF2FFFEE33FECD33CDCC6E
:100C4D0033CCC58233C5829BED9AEC99E5829840F1
:100C5D000CF582EE9BFEED9AFDEC99FC0FD5F0D6CE
:100C6D00E4CEFBE4CDFAE4CCF9A88222B800C1B9F8
:100C7D000059BA002DEC8BF084CFCECDFCE5F0CB36
:100C8D00F97818EF2FFFEE33FEED33FDEC33FCEB6F
:100C9D0033FB10D703994004EB99FB0FD8E5E4F92A
:100CAD00FA227818EF2FFFEE33FEED33FDEC33FC17
:100CBD00C933C910D7059BE99A4007EC9BFCE99A0B
:100CCD00F90FD8E0E4C9FAE4CCFB2275F010EF2F50
:100CDD00FFEE33FEED33FDCC33CCC833C810D70750
:100CED009BEC9AE899400AED9BFDEC9AFCE899F88B
:0E0CFD000FD5F0DAE4CDFBE4CCFAE4C8F9221E
:100D0B00FAE6FB0808E6F925F0F618E6CA3AF622E9
:100D1B00D083D082F8E4937012740193700DA3A367
:100D2B0093F8740193F5828883E47374029368607B
:060D3B00EFA3A3A380DF7B
:10148100EFB40A07740D12148C740A309811A899DC
:10149100B8130CC2983098FDA899C298B811F630CB
:0714A10099FDC299F59922A3
:00000001FF
